{
  "contractName": "TToken",
  "abi": [
    {
      "inputs": [],
      "stateMutability": "nonpayable",
      "type": "constructor"
    },
    {
      "inputs": [],
      "name": "totalSupply",
      "outputs": [
        {
          "internalType": "uint256",
          "name": "",
          "type": "uint256"
        }
      ],
      "stateMutability": "view",
      "type": "function",
      "constant": true
    }
  ],
  "bytecode": "0x608060405234801561001057600080fd5b506103e860008190555060b3806100286000396000f3fe6080604052348015600f57600080fd5b506004361060285760003560e01c806318160ddd14602d575b600080fd5b60336047565b604051603e9190605a565b60405180910390f35b60005481565b6054816073565b82525050565b6000602082019050606d6000830184604d565b92915050565b600081905091905056fea264697066735822122031e76aa9d1da3f09b01819afa62d5bb5ec9de482b963d68aa0df6a540810967e64736f6c63430008010033",
  "immutableReferences": {},
  "source": "pragma solidity >=0.4.22 <0.9.0;\n\ncontract TToken {\n\n\tuint public totalSupply;\n\n\tconstructor() public {\n\t\ttotalSupply = 1000;\n\t}\n}",
  "sourcePath": "/Users/stanislavsikorskyi/Documents/JavaScript/TokenProject/contracts/TToken.sol",
  "compiler": {
    "name": "solc",
    "version": "0.8.1+commit.df193b15.Emscripten.clang"
  },
  "schemaVersion": "3.4.3",
  "updatedAt": "2022-03-27T15:24:32.816Z",
  "networkType": "ethereum",
  "devdoc": {
    "kind": "dev",
    "methods": {},
    "version": 1
  },
  "userdoc": {
    "kind": "user",
    "methods": {},
    "version": 1
  }
}