{
  "contractName": "TToken",
  "abi": [
    {
      "inputs": [
        {
          "internalType": "uint256",
          "name": "_initialSupply",
          "type": "uint256"
        },
        {
          "internalType": "string",
          "name": "_name",
          "type": "string"
        },
        {
          "internalType": "string",
          "name": "_symbol",
          "type": "string"
        }
      ],
      "stateMutability": "nonpayable",
      "type": "constructor"
    },
    {
      "anonymous": false,
      "inputs": [
        {
          "indexed": true,
          "internalType": "address",
          "name": "_owner",
          "type": "address"
        },
        {
          "indexed": true,
          "internalType": "address",
          "name": "_spender",
          "type": "address"
        },
        {
          "indexed": false,
          "internalType": "uint256",
          "name": "_amount",
          "type": "uint256"
        }
      ],
      "name": "Approval",
      "type": "event"
    },
    {
      "anonymous": false,
      "inputs": [
        {
          "indexed": true,
          "internalType": "address",
          "name": "_from",
          "type": "address"
        },
        {
          "indexed": true,
          "internalType": "address",
          "name": "_to",
          "type": "address"
        },
        {
          "indexed": false,
          "internalType": "uint256",
          "name": "_amount",
          "type": "uint256"
        }
      ],
      "name": "Transfer",
      "type": "event"
    },
    {
      "inputs": [
        {
          "internalType": "address",
          "name": "",
          "type": "address"
        },
        {
          "internalType": "address",
          "name": "",
          "type": "address"
        }
      ],
      "name": "allowance",
      "outputs": [
        {
          "internalType": "uint256",
          "name": "",
          "type": "uint256"
        }
      ],
      "stateMutability": "view",
      "type": "function",
      "constant": true
    },
    {
      "inputs": [
        {
          "internalType": "address",
          "name": "",
          "type": "address"
        }
      ],
      "name": "balanceOf",
      "outputs": [
        {
          "internalType": "uint256",
          "name": "",
          "type": "uint256"
        }
      ],
      "stateMutability": "view",
      "type": "function",
      "constant": true
    },
    {
      "inputs": [],
      "name": "name",
      "outputs": [
        {
          "internalType": "string",
          "name": "",
          "type": "string"
        }
      ],
      "stateMutability": "view",
      "type": "function",
      "constant": true
    },
    {
      "inputs": [],
      "name": "symbol",
      "outputs": [
        {
          "internalType": "string",
          "name": "",
          "type": "string"
        }
      ],
      "stateMutability": "view",
      "type": "function",
      "constant": true
    },
    {
      "inputs": [],
      "name": "totalSupply",
      "outputs": [
        {
          "internalType": "uint256",
          "name": "",
          "type": "uint256"
        }
      ],
      "stateMutability": "view",
      "type": "function",
      "constant": true
    },
    {
      "inputs": [
        {
          "internalType": "address",
          "name": "_to",
          "type": "address"
        },
        {
          "internalType": "uint256",
          "name": "_amount",
          "type": "uint256"
        }
      ],
      "name": "transfer",
      "outputs": [
        {
          "internalType": "bool",
          "name": "success",
          "type": "bool"
        }
      ],
      "stateMutability": "nonpayable",
      "type": "function"
    },
    {
      "inputs": [
        {
          "internalType": "address",
          "name": "_spender",
          "type": "address"
        },
        {
          "internalType": "uint256",
          "name": "_amount",
          "type": "uint256"
        }
      ],
      "name": "approve",
      "outputs": [
        {
          "internalType": "bool",
          "name": "success",
          "type": "bool"
        }
      ],
      "stateMutability": "nonpayable",
      "type": "function"
    },
    {
      "inputs": [
        {
          "internalType": "address",
          "name": "_from",
          "type": "address"
        },
        {
          "internalType": "address",
          "name": "_to",
          "type": "address"
        },
        {
          "internalType": "uint256",
          "name": "_amount",
          "type": "uint256"
        }
      ],
      "name": "transferFrom",
      "outputs": [
        {
          "internalType": "bool",
          "name": "success",
          "type": "bool"
        }
      ],
      "stateMutability": "nonpayable",
      "type": "function"
    }
  ],
  "bytecode": "0x60806040523480156200001157600080fd5b5060405162001234380380620012348339818101604052810190620000379190620001f6565b81600190805190602001906200004f929190620000bd565b50806002908051906020019062000068929190620000bd565b5082600360003373ffffffffffffffffffffffffffffffffffffffff1673ffffffffffffffffffffffffffffffffffffffff168152602001908152602001600020819055508260008190555050505062000412565b828054620000cb906200031d565b90600052602060002090601f016020900481019282620000ef57600085556200013b565b82601f106200010a57805160ff19168380011785556200013b565b828001600101855582156200013b579182015b828111156200013a5782518255916020019190600101906200011d565b5b5090506200014a91906200014e565b5090565b5b80821115620001695760008160009055506001016200014f565b5090565b6000620001846200017e84620002a7565b6200027e565b9050828152602081018484840111156200019d57600080fd5b620001aa848285620002e7565b509392505050565b600082601f830112620001c457600080fd5b8151620001d68482602086016200016d565b91505092915050565b600081519050620001f081620003f8565b92915050565b6000806000606084860312156200020c57600080fd5b60006200021c86828701620001df565b935050602084015167ffffffffffffffff8111156200023a57600080fd5b6200024886828701620001b2565b925050604084015167ffffffffffffffff8111156200026657600080fd5b6200027486828701620001b2565b9150509250925092565b60006200028a6200029d565b905062000298828262000353565b919050565b6000604051905090565b600067ffffffffffffffff821115620002c557620002c4620003b8565b5b620002d082620003e7565b9050602081019050919050565b6000819050919050565b60005b8381101562000307578082015181840152602081019050620002ea565b8381111562000317576000848401525b50505050565b600060028204905060018216806200033657607f821691505b602082108114156200034d576200034c62000389565b5b50919050565b6200035e82620003e7565b810181811067ffffffffffffffff8211171562000380576200037f620003b8565b5b80604052505050565b7f4e487b7100000000000000000000000000000000000000000000000000000000600052602260045260246000fd5b7f4e487b7100000000000000000000000000000000000000000000000000000000600052604160045260246000fd5b6000601f19601f8301169050919050565b6200040381620002dd565b81146200040f57600080fd5b50565b610e1280620004226000396000f3fe608060405234801561001057600080fd5b50600436106100885760003560e01c806370a082311161005b57806370a082311461012957806395d89b4114610159578063a9059cbb14610177578063dd62ed3e146101a757610088565b806306fdde031461008d578063095ea7b3146100ab57806318160ddd146100db57806323b872dd146100f9575b600080fd5b6100956101d7565b6040516100a29190610aae565b60405180910390f35b6100c560048036038101906100c09190610997565b610265565b6040516100d29190610a93565b60405180910390f35b6100e3610357565b6040516100f09190610b30565b60405180910390f35b610113600480360381019061010e9190610948565b61035d565b6040516101209190610a93565b60405180910390f35b610143600480360381019061013e91906108e3565b61064f565b6040516101509190610b30565b60405180910390f35b610161610667565b60405161016e9190610aae565b60405180910390f35b610191600480360381019061018c9190610997565b6106f5565b60405161019e9190610a93565b60405180910390f35b6101c160048036038101906101bc919061090c565b610894565b6040516101ce9190610b30565b60405180910390f35b600180546101e490610c6c565b80601f016020809104026020016040519081016040528092919081815260200182805461021090610c6c565b801561025d5780601f106102325761010080835404028352916020019161025d565b820191906000526020600020905b81548152906001019060200180831161024057829003601f168201915b505050505081565b600081600460003373ffffffffffffffffffffffffffffffffffffffff1673ffffffffffffffffffffffffffffffffffffffff16815260200190815260200160002060008573ffffffffffffffffffffffffffffffffffffffff1673ffffffffffffffffffffffffffffffffffffffff168152602001908152602001600020819055508273ffffffffffffffffffffffffffffffffffffffff163373ffffffffffffffffffffffffffffffffffffffff167f8c5be1e5ebec7d5bd14f71427d1e84f3dd0314c0f7b2291e5b200ac8c7c3b925846040516103459190610b30565b60405180910390a36001905092915050565b60005481565b600081600360008673ffffffffffffffffffffffffffffffffffffffff1673ffffffffffffffffffffffffffffffffffffffff1681526020019081526020016000205410156103e1576040517f08c379a00000000000000000000000000000000000000000000000000000000081526004016103d890610af0565b60405180910390fd5b81600460008673ffffffffffffffffffffffffffffffffffffffff1673ffffffffffffffffffffffffffffffffffffffff16815260200190815260200160002060003373ffffffffffffffffffffffffffffffffffffffff1673ffffffffffffffffffffffffffffffffffffffff1681526020019081526020016000205410156104a0576040517f08c379a000000000000000000000000000000000000000000000000000000000815260040161049790610b10565b60405180910390fd5b81600360008673ffffffffffffffffffffffffffffffffffffffff1673ffffffffffffffffffffffffffffffffffffffff16815260200190815260200160002060008282546104ef9190610bbd565b9250508190555081600360008573ffffffffffffffffffffffffffffffffffffffff1673ffffffffffffffffffffffffffffffffffffffff16815260200190815260200160002060008282546105459190610b67565b9250508190555081600460008673ffffffffffffffffffffffffffffffffffffffff1673ffffffffffffffffffffffffffffffffffffffff16815260200190815260200160002060003373ffffffffffffffffffffffffffffffffffffffff1673ffffffffffffffffffffffffffffffffffffffff16815260200190815260200160002060008282546105d89190610bbd565b925050819055508273ffffffffffffffffffffffffffffffffffffffff168473ffffffffffffffffffffffffffffffffffffffff167fddf252ad1be2c89b69c2b068fc378daa952ba7f163c4a11628f55a4df523b3ef8460405161063c9190610b30565b60405180910390a3600190509392505050565b60036020528060005260406000206000915090505481565b6002805461067490610c6c565b80601f01602080910402602001604051908101604052809291908181526020018280546106a090610c6c565b80156106ed5780601f106106c2576101008083540402835291602001916106ed565b820191906000526020600020905b8154815290600101906020018083116106d057829003601f168201915b505050505081565b600081600360003373ffffffffffffffffffffffffffffffffffffffff1673ffffffffffffffffffffffffffffffffffffffff168152602001908152602001600020541015610779576040517f08c379a000000000000000000000000000000000000000000000000000000000815260040161077090610ad0565b60405180910390fd5b81600360003373ffffffffffffffffffffffffffffffffffffffff1673ffffffffffffffffffffffffffffffffffffffff16815260200190815260200160002060008282546107c89190610bbd565b9250508190555081600360008573ffffffffffffffffffffffffffffffffffffffff1673ffffffffffffffffffffffffffffffffffffffff168152602001908152602001600020600082825461081e9190610b67565b925050819055508273ffffffffffffffffffffffffffffffffffffffff163373ffffffffffffffffffffffffffffffffffffffff167fddf252ad1be2c89b69c2b068fc378daa952ba7f163c4a11628f55a4df523b3ef846040516108829190610b30565b60405180910390a36001905092915050565b6004602052816000526040600020602052806000526040600020600091509150505481565b6000813590506108c881610dae565b92915050565b6000813590506108dd81610dc5565b92915050565b6000602082840312156108f557600080fd5b6000610903848285016108b9565b91505092915050565b6000806040838503121561091f57600080fd5b600061092d858286016108b9565b925050602061093e858286016108b9565b9150509250929050565b60008060006060848603121561095d57600080fd5b600061096b868287016108b9565b935050602061097c868287016108b9565b925050604061098d868287016108ce565b9150509250925092565b600080604083850312156109aa57600080fd5b60006109b8858286016108b9565b92505060206109c9858286016108ce565b9150509250929050565b6109dc81610c03565b82525050565b60006109ed82610b4b565b6109f78185610b56565b9350610a07818560208601610c39565b610a1081610cfc565b840191505092915050565b6000610a28602e83610b56565b9150610a3382610d0d565b604082019050919050565b6000610a4b601283610b56565b9150610a5682610d5c565b602082019050919050565b6000610a6e601483610b56565b9150610a7982610d85565b602082019050919050565b610a8d81610c2f565b82525050565b6000602082019050610aa860008301846109d3565b92915050565b60006020820190508181036000830152610ac881846109e2565b905092915050565b60006020820190508181036000830152610ae981610a1b565b9050919050565b60006020820190508181036000830152610b0981610a3e565b9050919050565b60006020820190508181036000830152610b2981610a61565b9050919050565b6000602082019050610b456000830184610a84565b92915050565b600081519050919050565b600082825260208201905092915050565b6000610b7282610c2f565b9150610b7d83610c2f565b9250827fffffffffffffffffffffffffffffffffffffffffffffffffffffffffffffffff03821115610bb257610bb1610c9e565b5b828201905092915050565b6000610bc882610c2f565b9150610bd383610c2f565b925082821015610be657610be5610c9e565b5b828203905092915050565b6000610bfc82610c0f565b9050919050565b60008115159050919050565b600073ffffffffffffffffffffffffffffffffffffffff82169050919050565b6000819050919050565b60005b83811015610c57578082015181840152602081019050610c3c565b83811115610c66576000848401525b50505050565b60006002820490506001821680610c8457607f821691505b60208210811415610c9857610c97610ccd565b5b50919050565b7f4e487b7100000000000000000000000000000000000000000000000000000000600052601160045260246000fd5b7f4e487b7100000000000000000000000000000000000000000000000000000000600052602260045260246000fd5b6000601f19601f8301169050919050565b7f5468657265206973206e6f7420656e6f75676820746f6b656e7320617420736560008201527f6e6465722773206163636f756e74000000000000000000000000000000000000602082015250565b7f4e6f7420616e6f7567682062616c616e63650000000000000000000000000000600082015250565b7f4e6f7420656e6f75676820616c6c6f77616e6365000000000000000000000000600082015250565b610db781610bf1565b8114610dc257600080fd5b50565b610dce81610c2f565b8114610dd957600080fd5b5056fea26469706673582212206813de89c2f0b8aefda435e174d48bdcc317a2eb095004e4ff0f3493cd1acfbb64736f6c63430008010033",
  "immutableReferences": {},
  "source": "pragma solidity >=0.4.22 <0.9.0;\n\ncontract TToken {\n\n\tuint public totalSupply;\n\tstring public name;\n\tstring public symbol;\n\tmapping(address => uint) public balanceOf;\n\tmapping(address => mapping(address => uint)) public allowance;\n\n\tevent Transfer(address indexed _from, address indexed _to, uint _amount);\n\tevent Approval(address indexed _owner, address indexed _spender, uint _amount);\n\n\tconstructor(uint _initialSupply, string memory _name, string memory _symbol ) public {\n\t\tname = _name;\n\t\tsymbol = _symbol;\n\t\tbalanceOf[msg.sender] = _initialSupply;\n\t\ttotalSupply = _initialSupply;\n\t}\n\n\tfunction transfer(address _to, uint _amount) public returns(bool success) {\n\t\trequire(balanceOf[msg.sender] >= _amount, \n\t\t\t\t\"There is not enough tokens at sender's account\");\n\t\tbalanceOf[msg.sender]-= _amount;\n\t\tbalanceOf[_to] += _amount;\n\t\temit Transfer(msg.sender, _to, _amount);\n\t\treturn true;\n\t}\n\n\tfunction approve(address _spender, uint _amount) public returns(bool success) {\n\t\tallowance[msg.sender][_spender] = _amount;\n\t\temit Approval(msg.sender, _spender, _amount);\n\t\treturn true;\n\t}\n\n\tfunction transferFrom(address _from, address _to, uint _amount) public returns(bool success) {\n\t\trequire(balanceOf[_from] >= _amount, \"Not anough balance\");\n\t\trequire(allowance[_from][msg.sender] >= _amount, \"Not enough allowance\");\n\t\tbalanceOf[_from] -= _amount;\n\t\tbalanceOf[_to] += _amount;\n\t\tallowance[_from][msg.sender] -= _amount;\n\t\temit Transfer(_from, _to, _amount);\t\n\t\treturn true;\n\t}\n\n}",
  "sourcePath": "/Users/stanislavsikorskyi/Documents/JavaScript/TokenProject/contracts/TToken.sol",
  "compiler": {
    "name": "solc",
    "version": "0.8.1+commit.df193b15.Emscripten.clang"
  },
  "schemaVersion": "3.4.3",
  "updatedAt": "2022-03-28T23:15:47.103Z",
  "networkType": "ethereum",
  "devdoc": {
    "kind": "dev",
    "methods": {},
    "version": 1
  },
  "userdoc": {
    "kind": "user",
    "methods": {},
    "version": 1
  }
}